:020000040800F2
:100000002083012079030008EB450008F540000833
:10001000E945000839290008FD4C000800000000EF
:10002000000000000000000000000000B90200080D
:10003000E52900080000000015030008F148000849
:100040009303000893030008930300089303000838
:100050009303000893030008930300089303000828
:100060009303000893030008930300089303000818
:100070009303000893030008930300089303000808
:1000800093030008930300089303000893030008F8
:1000900093030008930300089303000893030008E8
:1000A00093030008930300089303000893030008D8
:1000B00093030008930300089303000893030008C8
:1000C00093030008930300089303000893030008B8
:1000D00093030008930300089303000893030008A8
:1000E000A12A000893030008930300089303000863
:1000F0009303000893030008930300089303000888
:100100009303000893030008930300089303000877
:100110009303000893030008B14900089303000803
:100120009303000893030008930300083D29000887
:100130009303000893030008930300089303000847
:100140009303000893030008930300089303000837
:10015000930300089303000893030008F14C000880
:100160009303000893030008930300089303000817
:1001700093030008930300089303000800000000A5
:10018000930300089303000800F002F800F084F8DD
:100190000AA090E8000C82448344AAF10107DA45E2
:1001A00001D100F079F8AFF2090EBAE80F0013F0B0
:1001B000010F18BFFB1A43F00103184798FD030015
:1001C000D8FD03000A444FF0000C10F8013B13F077
:1001D000070408BF10F8014B1D1108BF10F8015BA0
:1001E000641E05D010F8016B641E01F8016BF9D193
:1001F00013F0080F1EBF10F8014BAD1C0C1B09D1EA
:100200006D1E58BF01F801CBFAD505E014F8016B5B
:1002100001F8016B6D1EF9D59142D6D370470000ED
:10022000103A24BF78C878C1FAD8520724BF30C822
:1002300030C144BF04680C607047000000230024F4
:1002400000250026103A28BF78C1FBD8520728BFE6
:1002500030C148BF0B607047642900F04D8273299C
:1002600000F0E186002070471FB53AF0C1FD9DE81F
:10027000030000F011FE01F013FA04000020002139
:100280003AF0D6F9401C6060002000213AF0E6F90F
:10029000E0601FBD10B510BD01F062FC1146FFF714
:1002A000E3FF2CF017FA01F0B5FE03B4FFF7F2FFFD
:1002B00003BC01F0E5FE00002C4B19680868B0E8AB
:1002C000F04F80F30988BFF36F8F4FF0000080F389
:1002D000118870470000000008480068006880F33B
:1002E00008884FF0000080F3148862B661B6BFF34F
:1002F0004F8FBFF36F8F00DF00BF00BF08ED00E03E
:10030000DFF80C00016841F470010160704700BF24
:1003100088ED00E0EFF30980BFF36F8F134B1A688D
:100320001EF0100F08BF20ED108A20E9F04F10607A
:1003300009B44FF0500080F31188BFF34F8FBFF323
:100340006F8F39F01BFA4FF0000080F3118809BC61
:1003500019680868B0E8F04F1EF0100F08BFB0EC45
:10036000108A80F30988BFF36F8F70471400002054
:10037000EFF30580704700000948804709480047AF
:10038000FEE7FEE7FEE7FEE7FEE7FEE7FEE7FEE745
:10039000FEE7FEE704480549054A064B70470000A2
:1003A000A149000889010008205F01202083012065
:1003B000207F0120207F012070B5064600F050FD0F
:1003C000056806F10B0020F00704B4429CBF002032
:1003D00070BD2B466A68BAB11068A04210D304F110
:1003E000080188423CBF5068586007D35168101913
:1003F00041601168091B016058601460101D70BDD8
:1004000013465268002AE7D12146284600F030FD05
:100410000028DED170BD70B50446051F00F020FD38
:100420000068002C14BF446870BD002C18BFAC429B
:100430003CBF20466468F8D301680A18AA4218BF76
:10044000456003D12A6805461144016028684119B6
:10045000A1421CBF6C6070BD61686960216808447E
:10046000286070BD70B50D460646041F00F0F8FC0C
:10047000D0F800C0C5B1E6B105F10B0020F00703CC
:10048000AB423CBF002070BD2068984238BFDCF80A
:10049000042013D3C11A08292FD3E01840F8041BF5
:1004A0002360FFF7B8FF28E03046FFF7B4FF0020D5
:1004B00070BD2846BDE87040FFF77EBF002A18BF18
:1004C000A2423CBF94465268F8D30119914216D11A
:1004D00011680844984212D3C11A08293CBF206011
:1004E000506808D35168E0184160216812681144CF
:1004F000C91A01602360CCF80400201D70BD181FCC
:10050000FFF75AFF050007D021680A1F211D00F0E0
:10051000F9FB201DFFF77FFF284670BD53EA020C50
:1005200000F069802DE9F04B4FF00006002B1FBF53
:10053000B3FA83F503FA05F424FA05F65E4012BF18
:100540001643B2FA82F502FA05F4C5F120051EBF82
:1005500022FA05FC44EA0C04203556EA044C4FEA22
:10056000144418BF641C4FF000084FF0000990427B
:1005700071EB030C39D3002919BFB1FA81F701FAE5
:1005800007F6B0FA80F700FA07F6C7F120071EBF9A
:1005900020FA07FC46EA0C062037B6FBF4FCA7EB72
:1005A0000507103F07F01F0BCBF120060CFA0BFBE1
:1005B0002CFA06F644BFB3460026202FA4BF5E46A1
:1005C0004FF0000B5BEA060C08BF4FF0010B19EB74
:1005D0000B09ABFB027C48EB0608C01B06FB02CCF8
:1005E0000BFB03CC71EB0C01C1E70B460246414605
:1005F0004846BDE8F08B13B54FF000004FF0000106
:10060000AFF30080BDE81C40704710B54C1084EA81
:10061000530404D54042C1F1000138BF491E1B42BA
:1006200004D55242C3F1000338BF5B1EFFF776FFCB
:1006300014F0804F04D04042C1F1000138BF491E80
:1006400014F0004F04D05242C3F1000338BF5B1EC8
:1006500010BD10B5044600F0FBFB0068005DC0064D
:1006600002D504F1200010BD204610BD0FB47CB5AA
:100670000C0009AA009001D02044401E084B7B4486
:1006800069460190089800F09CFC05461CB10020CA
:10069000694600F0A9FC28467CBC5DF814FB00000C
:1006A0007109000070B50C460546012A05D028786E
:1006B000800600D5EA69002302E0012305E05B1C07
:1006C000934202D2E05C0028F9D1A869E618C01A6A
:1006D000A861286A184428622846AFF3008004E025
:1006E000D5E9012114F8010B9047B442F8D328460C
:1006F000AFF3008070BD00002DE9F04106460024F4
:1007000010687529314616A510D0AFF30080002877
:1007100002DA404213A507E031688A0701D512A525
:1007200002E0490704D511A5012401E0AFF30080E0
:1007300000210A2206F1240709E0B0FBF2FCB0FB1D
:10074000F2F302FB1C00303078541846491C002894
:10075000F3D123462A463046BDE8F04100F0D2BB33
:10076000000000002D0000002B0000002000000011
:100770002DE9F05F894604464FF0000ADFF824B106
:10078000FB44C0F820A02046E168884700287DD0BF
:10079000252806D0D4E901219047206A401C206218
:1007A000F1E700255F462046E16888472028064695
:1007B00007DB312E05D2B81910F8200C08B105431B
:1007C000F1E7A80701D525F00405C4F81CA000270F
:1007D000C4F818A02A2E09D0304604F012FC38B311
:1007E00004EB8708303EC8F8186019E059F8041B7C
:1007F000204604EB87029161E1688847012F064695
:1008000018D1E069002820DA25F020051DE0D8F88D
:10081000180000EB800006EB40003038C8F81800E4
:100820002046E1688847064604F0EBFB0028EED13D
:10083000012F0AD02E2E08D12046E16888477F1C60
:100840000646022F45F02005C4DBA069002803DA24
:10085000404245F00105A061E80701D025F01005F0
:10086000A6B1A6F14100192802D8203645F400654A
:100870004A463146204625604D46FFF7EDFC60B103
:10088000012807D0ED1D25F0070000E007E000F18A
:10089000080978E705F1040975E730467AE7206A28
:1008A000BDE8F09FC0ED03000FB400B58DB010A9F6
:1008B000099000910B904FF0FF300A9000200C90AF
:1008C000064878440690064878446A4607900F998F
:1008D00009A800F03DFE0DB05DF814FBAB0C000064
:1008E000C30C00002DE9FF5F1D464FF0FF3B914612
:1008F0004FF000085F46D5E90146A96901987F1CC1
:100900008847296A824688470028F6D1BAF1FF3F16
:100910000CD0002E24F4C06419DD600614D5BAF1A1
:100920002B0F09D0BAF12D0F0ED103E0584604B0B9
:10093000BDE8F09F44F48064A96901987F1C884752
:10094000761E8246002E02DDBAF1300F03D0B9F1D7
:10095000000F26D032E0A969761E01987F1C44F46E
:1009600000748847002E824605DDBAF1780F06D064
:10097000BAF1580F03D0B9F1000F10D01EE0B9F151
:10098000000F02D0B9F1100F18D1A969761E019895
:100990007F1C24F4007488478246102002E008205F
:1009A00000E00A20814609E0A96908FB0908761ED3
:1009B00001987F1C44F4007488478246002E05DDB0
:1009C0004946504600F033FB0028EDDAE96901980A
:1009D0008847A00502D46FF00100A8E7E00725D101
:1009E000600613D5600502D5C8F1000000E040465E
:1009F00029680A1D2A600968220501D5087015E0DA
:100A0000220701D5088011E008600FE02868011D69
:100A100029600068210502D580F8008006E02107E2
:100A200002D5A0F8008001E0C0F8008038467EE7DB
:100A30002DE9FF5F4FF0000899461446464691693C
:100A4000D2E901A7DDF838B001988847054659EA90
:100A50000B0005D009E0A1690198761C884705467E
:100A6000216A284688470028F5D1681C03D05FEA30
:100A7000CA7005D015E04FF0FF3004B0BDE8F09F1C
:100A80002068011D2160D0F800800AE05FEACA708A
:100A900001D108F8015BA169761C01987F1E884787
:100AA0000546002F1ADD681C18D0B9F1000F0DD0D3
:100AB000E81705EBD060421120F01F0059F8221012
:100AC0002A1A012090400142E0D107E0BBF1000F5B
:100AD000DCD12846216A88470028D7D0E1690198EF
:100AE0008847BBF1000F07D1002E05DD5FEACA7011
:100AF00002D1002188F80010A068B84203DDBBF1E4
:100B0000000F03D017B16FF00100B6E73046B4E72D
:100B1000401ECAB210F8011F8A4202D00029F9D142
:100B20000020704730B505460B462A4613F8014BA6
:100B300012F8010B08B1A042F8D01CB1002802D075
:100B40006D1CF1E7284630BD40EA0103024630B58E
:100B50009B0710D14FF0013400E008C208C91D1BEB
:100B60009D4315EAC41FF8D013F0FF0102F8011BE2
:100B70000DD01B0AF8E711F8013B002B02F8013BEE
:100B800005D011F8013B002B02F8013BF3D130BD39
:100B90000022CBB210F8011B994200D1421E00295D
:100BA000F8D11046704710B5431C02E010F8011B45
:100BB00071B18107FAD14FF0013202C88C1A8C430F
:100BC00014EAC211F9D0C01A0A0603D0C01E10BD23
:100BD000C01A10BD0A0401D0801E10BD0902FCD04D
:100BE000401E10BD40EA010370B59B072ED14FF0A7
:100BF0000136042A2AD308C810C99D1B9D43121F21
:100C000015EAC61517D0D8B2E1B2401A50EA05610C
:100C100010D198B2A1B2401A50EA05410AD123F08E
:100C20007F4024F07F41401A50EA052102D1180E7E
:100C3000A0EB146070BDA342DBD018BA21BA884281
:100C400001D9012070BD4FF0FF3070BD0AB90020FE
:100C500070BD10F8013B11F8014B63B1A3420AD1FA
:100C6000521E08D010F8013B11F8014B1BB1A342F2
:100C700001D1521EEDD1181B70BD032A40F2308005
:100C800010F0030C00F0158011F8013BBCF1020FCD
:100C9000624498BF11F801CB00F8013B38BF11F84E
:100CA000013BA2F1040298BF00F801CB38BF00F865
:100CB000013B11F0030300F02580083AC0F00880E2
:100CC00051F8043B083A51F804CBA0E80810F5E7C6
:100CD000121D5CBF51F8043B40F8043BAFF30080A9
:100CE000D20724BF11F8013B11F801CB48BF11F81E
:100CF000012B24BF00F8013B00F801CB48BF00F8EE
:100D0000012B704710B5203AC0F00B80B1E81850A5
:100D1000203AA0E81850B1E81850A0E81850BFF4E5
:100D2000F5AF5FEA027C24BFB1E81850A0E8185084
:100D300044BF18C918C0BDE810405FEA827C24BFD8
:100D400051F8043B40F8043B08BF7047D20728BF66
:100D500031F8023B48BF11F8012B28BF20F8023BB5
:100D600048BF00F8012B704702F0FF0343EA03225B
:100D700042EA024200F070BC4FF0000200B5134698
:100D800094469646203922BFA0E80C50A0E80C50AB
:100D9000B1F12001BFF4F7AF090728BFA0E80C505C
:100DA00048BF0CC05DF804EB890028BF40F8042B55
:100DB00008BF704748BF20F8022B11F0804F18BFC2
:100DC00000F8012B704700004FF0013C50F8042B55
:100DD00051F8043B9A4221D1A2EB0C03934313EA4E
:100DE000CC1317D150F8042B51F8043B9A4215D17B
:100DF000A2EB0C03934313EACC130BD150F8042B52
:100E000051F8043B9A4209D1A2EB0C03934313EA35
:100E1000CC13DBD04FF00000704700BFD01A01BAEE
:100E2000B1FA81F101F0180122FA01F0CB40C1F1D1
:100E30002001DBB2C0B2C01A2CFA01F3D11A9143DF
:100E400011EAC311E6D17047704770477047000040
:100E500010B500F025FC001D10BD00BFD5970300A4
:100E600000487047C45E0120704770477047704764
:100E700038B504460A4600206946AFF300800028D2
:100E800008BF38BD02460099204600F011FC012041
:100E900038BD012000F05CBEF8B5AFF30080054618
:100EA00000200C46102000BF0646A819A0420DD90C
:100EB000324669460020AFF30080070008BF00F00B
:100EC00047FE0098A04218BF0546C419FFF7C8FFA7
:100ED00005600746F01D20F007004619284600F07F
:100EE0000AF8B44208BFF8BDA21B31463868BDE815
:100EF000F84000F0DDBB00210160C0E9011070473F
:100F0000102070472DE9F0470D4699469246044659
:100F100000F124080168880604D5E06921F0100179
:100F2000216000E00120A84201DD471B00E000270E
:100F3000A1697A1902EB0900081AA0612078C0069D
:100F400002D42046AFF30080002608E0D4E9012156
:100F50001AF806009047206A401C761C20624E4515
:100F6000F4DB2078C0060AD52046AFF3008006E007
:100F7000D4E9012130209047206A401C2062381EAD
:100F8000A7F10107F4DC07E0D4E9012118F8050016
:100F90009047206A401C2062281EA5F10105F3DC61
:100FA0002046AFF300802078000602D50220BDE87D
:100FB000F0870120FBE7000001694A1C0261087804
:100FC000704700B58FB0CDE9013100210591054989
:100FD0007944CDE9031011466846FFF7C9FB0FB00D
:100FE00000BD0000E5FFFFFF0A6802F8010B0A6080
:100FF0007047D1E900239A4202D2531C0B60107053
:10100000704710B5436913B1AFF3008001E0FFF7FB
:1010100049FB012010BD127800F124010A70002262
:101020004A700122EDE711684FF0FF32E9E73A28F4
:1010300000D2303820F02002412A01D3A2F137003B
:10104000884201D34FF0FF30704700002DE9FF4F79
:1010500006468BB00878FF2806D0491C2D2805D0FD
:1010600000244FF0000908E000200CE00124F8E71C
:1010700009EB8903491C00EB43090878FF28F7D1E5
:1010800014B1C9F100008146107800252C46AA460B
:1010900029462D2801D02B2804D1521C2D2813D0ED
:1010A000002082468B461078FF280FD04FF0000CAE
:1010B0000A21521CA5FB017804FB018105FB0C11E0
:1010C000C5194BEB0104EEE70120EAE700210846D1
:1010D0004FF00000BAF1000F02D000EB8000400892
:1010E000C0F38157012F01DD4FF0FF370E9955EA0C
:1010F000040009EB01080BD04FF0020918F5FA7F44
:1011000016DA4FEACA70002F706008DD012007E090
:101110004FEACA70C6E900B00FB0BDE8F08F0020FA
:10112000306000F0C1FAC0F800901821084616E0BF
:10113000B8F5FA7F18DD002F02DAF748784401E0AD
:10114000F6487844D0E90010C6E9001040EACA70B9
:10115000706000F0A9FAC0F80090142108460FB0A2
:10116000BDE8F04F39F04EBE002108464FF00000B8
:10117000B8F10001099002DAC7F1000200E03A4636
:1011800001DAC8F1000106A800F070FC06AB93E894
:10119000070003AB83E8070044F23E005BEA04016A
:1011A0000090584604D144F21E012C465D46009141
:1011B000210C0904014306D10099240444EA154492
:1011C0002D041039009104F07F41014306D10099AC
:1011D000240244EA15642D020839009104F070419C
:1011E000014306D10099240144EA15742D01091F19
:1011F000009104F04041014306D10099A40044EA63
:101200009574AD00891E009104F00041084304D19B
:1012100000986D196441401E00904FF001033A465A
:101220006846B8F1000FCDE9014503A902DD01F0E0
:10123000ECF901E001F0BFF9BAF1000F04460D46E8
:1012400001D084F00044002108464FF000000999C5
:1012500040F2FF77484010F00C0F07D124F0004017
:10126000284303D0C4F30A50B84212D100F01CFA4C
:10127000C0F80090C4F30A50B8420AD1A848784494
:10128000D0E90010C6E9001004F000410843706086
:1012900042E7C6E900543FE72DE9FF4F1F464FF0F4
:1012A000000A4FF0FF38454691B0D7E90146CDF826
:1012B0003CA000F0F5F9C0680168405C1090B96985
:1012C00012986D1C8847396A814688470028F6D1F4
:1012D000B9F1FF3F0AD0002E24F4D06411DDB9F13A
:1012E0002B0F08D0B9F12D0F0BD102E0404615B0FD
:1012F00013E744F48064B96912986D1C8847761E20
:101300008146600504A901D52D2000E02B20002E88
:1013100001F1010B0DF130088DF810003FDDB9F13E
:10132000690F08D0B9F1490F05D0B9F16E0F02D09D
:10133000B9F14E0F1CD13B4601A8009580E8500240
:10134000DDE912126FF0020039F0C3FDC11CCED1ED
:101350000EE0B96912986D1C884781461398761E75
:1013600044F4007405600F98401C002E0F9016DDA9
:10137000B9F1300FEDD0B9F1780F02D0B9F1580FB3
:101380000DD10F9801280AD13B46CDE90054DDE983
:101390001212001F029639F09AFDC11CA7D11099B4
:1013A00089453ED144F0800406E01399681CAAF1F7
:1013B000010A44F400740860B9696D1C1298761E25
:1013C000884730288146F0D02BE01099894505D117
:1013D000200603D4761E44F0800418E0484603F04B
:1013E00010FE08B3761E0DF123018B4544F4007402
:1013F00008D2A9F130000BF8010B200607D5AAF19D
:10140000010003E0200602D40AF101008246A00593
:1014100002D51399681C0860B96912986D1C884739
:101420008146002ED1DC53E0002E51DDB9F1650F6D
:1014300002D0B9F1450F4BD1A00549D5B9696D1C52
:101440001298761E24F440748847002E81460CDDE5
:101450002B2804D0B9F12D0F07D144F48074B96959
:1014600012986D1C8847761E8146E00501D52D2116
:1014700000E02B2108F8011BCDF8008021E0761E4A
:101480000DF13901884544F400740CD2A9F1300003
:1014900010F0FF0088F8000002D10099884509D9B2
:1014A00008F1010806E0E00501D51E4801E042F21E
:1014B0000F708246B96912986D1C8847814613984F
:1014C0000560002E04DD484603F09BFD0028D6D1C0
:1014D000F96912988847FF2053468BF8000088F876
:1014E000000000200A900B9004AA0CA90AA8FFF79C
:1014F000ADFDA00502D46FF00100F8E614F0240F52
:1015000012D0E0071CD13868DDE90A12031D3B60E8
:101510000068C0E9001213E05CEE03004EEE030029
:1015200012ED0300F1D8FFFF0AA9684603F010FD91
:10153000E00705D13868009A011D39600068026033
:101540002846D4E6026811441378016018467047B3
:10155000D1600549794451610449794411620021FF
:101560001161114600F0C8B8EDFFFFFF87010000D0
:10157000426842B1016811F8013B23B1521EC0E933
:101580000012184670470121C160881E70474268EA
:101590005AB1C368016843B983688B4205D0491EBC
:1015A000521CC0E90012002070474FF0FF30704716
:1015B0000FB4002300B589B00CA900910B99CB6042
:1015C000214B7B440693214B7B44079304236FF00C
:1015D0000042CDE901321E4A7A446B460892024627
:1015E000002039F072FC09B05DF814FB70B50646B6
:1015F0004FF0FF3015460C46324686B00091CDE9DB
:10160000010169460020049004A8FFF7D1FF0246BB
:101610000498211825B108B1084600E0204628604A
:10162000049800280DD0002A02DD0098884208D0D6
:101630003246081B69460094CDE9010404A8FFF76F
:10164000B7FF06B070BD0000ABFFFFFFC3FFFFFF99
:10165000090100004FF000020429C0F0128010F0D0
:10166000030C3FF48BABCCF1040CBCF1020F18BFA0
:1016700000F8012BA8BF20F8022BA1EB0C01FFF70B
:101680007DBB5FEAC17C24BF00F8012B00F8012B71
:1016900048BF00F8012B704700487047BC5E01202E
:1016A00000487047DC5E012000487047BC5E0120A6
:1016B000034640688C46002818BF88423CBF03465A
:1016C0004068F8D318681844884207D00CF103002A
:1016D00020F00700001D411A521A0146081D0A6039
:1016E000FEF799BE10B50446FFF7B2FB0068005D37
:1016F00000F0010010BD00002DE9F34F4FF0000A8B
:101700000C4656468DB001200C9001F10C000B9058
:1017100062690B9801219047051E2DD0252D2CD0F4
:10172000216A8847C0B162690B9801219047216AFC
:1017300088470028F7D16269411E0B98904700E066
:10174000761CA1690D988847216A88470028F7D13F
:10175000E1690D988847DBE7A1690D988847A842A1
:10176000074601D1761CD3E7E1690D9888477F1CB5
:1017700002D1BAF1000F6FD06CE162690B980027BB
:101780003D46394690472A2804D162690B980121C9
:1017900090470125DFF8D08262690B9801219047BC
:1017A000A0F130010A290AD24745E5DC07EB8701A1
:1017B00000EB4107303FDFD445F01005ECE7E906C8
:1017C00001D46FF000476C280AD04C2814D0682848
:1017D00015D06A280DD074281CD07A281AD01DE0A4
:1017E00062690B98012190476C2802D045F00405EE
:1017F00014E045F002050DE045F020050AE06269BD
:101800000B9801219047682802D045F0080505E0B3
:1018100045F4006562690B9801219047C4E90157BE
:1018200065283DD019DC58287AD00CDC452837D003
:1018300004DC252826D041289ED131E046282FD02F
:10184000472899D12CE05B2877D0612828D06328DD
:101850007CD0642823D15AE0F7E06F2848D008DC18
:1018600066281DD067281BD0692821D06E2816D184
:1018700027E0702845D0732868D0752847D078288D
:101880000DD14DE0A1690D988847252805463FF404
:1018900069AFE1690D9888476D1C3FF46AAFD9E0E4
:1018A0000D9923466A466FF0010039F00EFBC6E041
:1018B00045F0400023464FF000026060A80736D490
:1018C0003EE0E8077FF447AF2068011D2160006813
:1018D000290501D506701BE7290701D5068017E702
:1018E000A90703D5F117C0E9006111E706600FE70A
:1018F00045F0400023464FF008026060A80716D468
:101900001EE040F60E0125EA0100606016E045F099
:10191000400023464FF00A026060A80707D40FE09A
:1019200045F040006060A80708D5234610220D99B5
:101930006FF00100AFF3008081E007E01022234642
:101940000D996FF00100FEF7CDFF78E04FF0000930
:1019500063284F46C8464B46CB4602D05B2807D08B
:1019600039E02079C00601D40120A060012732E0CF
:101970006269D4F80CB00B98012190475E2807D11A
:101980004FF0010949466269D4F80CB00B989047B2
:10199000216939B900210A4603AB43F82120491CCB
:1019A0000829FADBD8B3216949B308F10108626953
:1019B0000B98012190475D28F4D1B9F1000F09D0AF
:1019C000002003A951F82020D24341F82020401CD8
:1019D0000828F7DB03AB2069002820794FEA407024
:1019E0001ED05B462246CDF80080CDE901970D99C7
:1019F00000286FF0010020DAAFF300801FE0C1176C
:101A000003AA00EBD1614B1121F01F0102EB83020D
:101A1000411A13680120884003431360C7E719E0A7
:101A20000D99224600286FF00100009702DAAFF30B
:101A3000008004E0FEF7FCFF01E0AFF30080002827
:101A40000ADA401C06D10C9820B14FF0FF300FB0DD
:101A5000BDE8F08F5046FAE7E90701D10AF1010A23
:101A6000064400200C9053E6CCCCCC0C2DE9F0477A
:101A7000814616468AB0354878440DC88DE80D0079
:101A800032487844801C03AC0DC884E80D0041F650
:101A90009B300844372190FBF1F290FBF1F5A5F162
:101AA000800501FB12041B3C02D56442012000E0CA
:101AB0000020DFF898A080460027FA44AAF1BE0A69
:101AC0000EE0E0070AD03246684607EB47010123E3
:101AD0000AEB810100F084FD8DE8070064107F1C93
:101AE000002CEED1194F7F44AE3F19E0E80715D026
:101AF00007EB04100DF1180A90E80E008AE80E00BA
:101B0000C068F04201D1981908903246012306A915
:101B100003A800F065FD03AB83E807006D10641CAB
:101B2000002DE3D14FF0010332466946B8F1000FB2
:101B300003A802D000F02AFD01E000F051FDC9E940
:101B40000001C9F808200AB0BDE8F08758DB03009F
:101B500010B500F06DFABDE8104000F064BA7047AF
:101B60007546FFF799FDAE4605006946534620F0DD
:101B70000700854618B020B5FEF70CFCBDE82040F4
:101B80004FF000064FF000074FF000084FF0000B39
:101B900021F00701AC46ACE8C009ACE8C009ACE8EC
:101BA000C009ACE8C0098D46704710B5FFF77CFD51
:101BB000006810BD10B50446FFF776FD046010BD47
:101BC0002DE9FF4F1F464FF03C0987B04FF0004210
:101BD000DDE9141001F10108DDF858A002EA4050D7
:101BE0000390002005908346054604460490B96999
:101BF000461E08988847AAF1010A0290BAF1000F20
:101C00003BDD02982E2815D01021FFF710FA00288E
:101C10002EDB4FF0010B0599014317D0B9F1000FEE
:101C20000BDB4A46C11700F031FA05430C43A9F11A
:101C3000040905E0012004900BE008B145F001051E
:101C400001200590049820B9361D02E0049800B1E7
:101C5000361FB969089808F101088847BBF1000FE1
:101C6000AAF1010A0290C9D00999C1F80080C5E71C
:101C70000298702808D0502806D0F969089888473B
:101C8000BBF1000F14D04FE0002002900120BBF107
:101C9000000F049009D0B969089808F10108884735
:101CA000AAF10109B9F1000F07DCF9690898884722
:101CB0006FF001000BB0BDE8F08F2B2804D02D2869
:101CC0000CD14FF0FF300490B969089808F1010871
:101CD0008847A9F10109B9F1000FE6DD411CE4D004
:101CE0000A21FFF7A4F90028DFDB029908F10108B7
:101CF00001EB810100EB41000290B9690898884727
:101D00000A21FFF794F9099AA9F10109B9F1000F25
:101D1000C2F8008001DD0028E7DAF96908988847F1
:101D20000499029800FB016655EA040004D004F00F
:101D30004041090002D006E0039898E0A40044EA7C
:101D40009574AD00B61E04F00041080002D16D1973
:101D50006441761E159810F0240F03D04FF00B0944
:101D60005C4803E04FF028096FF07D00824656453D
:101D700007DAAAEB06018944B9F1410F01DD4FF002
:101D8000410901200021A9F1010200F07FF902467A
:101D900028400B462140084301D0012100E00021EA
:101DA000501E029143F1FF3128402140084301D0E9
:101DB000012000E000200299834651EA0B014FD038
:101DC000002108464FF00000039900F4400039B1AB
:101DD00000EB80004FF4400100EBD07001EA60009E
:101DE0008015012802DD4FF0FF3000E013D0401CC9
:101DF00036D0029860B3BBF1000F0CD14A460120E7
:101E0000002100F043F928402140084301D001207F
:101E100000E00020E0B101204A46002100F036F940
:101E2000034640190A4661412D1A8C4111D3B9F17C
:101E3000400F09DD159810F0240F02D0AAF13406E6
:101E400003E0AAF1170600E0761C00254FF00044DD
:101E500006E05B1E42F1FF3220EA030521EA02049C
:101E6000CAF10100B04206DA1B4903980843019009
:101E7000002000900EE0039AC4F3D321E80A0A433D
:101E8000164940EA44500A433146CDE9000268460B
:101E900003F067F8159810F0240F0BD01598C007C1
:101EA00015D13868DDE90012031D3B600068C0E908
:101EB00000120CE002A8694603F04AF81598C00722
:101EC00005D13868029A011D3960006802604046F9
:101ED000F0E6000002FCFFFF0000F07F0000F03F92
:101EE0002DE9FF4F92461D4685B04FF00041DDE9D8
:101EF000124BDDE914727F1E01EA4B50414940F05C
:101F0000FF4940EA0108002122F0200049280491FD
:101F100002D04E2828D04CE03BA0012607C88DE80F
:101F20000700A9690698641C88477F1E014606D4ED
:101F30001DF8060018B121F0200181420BD0E9699B
:101F400006988847032E34D0082E32D06FF0010057
:101F500009B0BDE8F08F761C032E01D0082EE0D129
:101F6000601CCAF80000DCE7A9690698641C884771
:101F70007F1E2AD420F02000412826D1A969069886
:101F8000641C88477F1E20D420F020004E281CD1DE
:101F9000A9690698641C88477F1E48F4002849F404
:101FA0008009CAF8004001D4282806D0E9690698BB
:101FB00088475FEACB7012D022E0A9690698641CBA
:101FC00088477F1E01D4002803DAE969069888470C
:101FD000BCE72928F1D1641CCAF80040E9E71BF0EE
:101FE000240F07D028680499031D2B600068C0E9FE
:101FF000001805E02868021D2A600068C0F80090FB
:102000002046A5E70000F07F494E46494E49545905
:102010000000000010B50446AFF300802046BDE884
:102020001040FEF742B9002801D000F029B87047EF
:1020300010B5012805D0002103A000F03AF80120D6
:1020400010BD09A1F8E7000053494752544D454DD2
:102050003A204F7574206F662068656170206D6549
:102060006D6F7279000000003A2048656170206D44
:10207000656D6F727920636F72727570746564003C
:1020800001491820ABBEFEE726000200B2F1200392
:102090000AD5C2F1200301FA02F120FA03F300FA93
:1020A00002F041EA0301704700FA03F14FF000002B
:1020B000704770B505460C460A2000E06D1C00F024
:1020C00011F835B128780028F8D102E0641C00F03E
:1020D00009F814B120780028F8D1BDE870400A2032
:1020E000AFF3008008B569468DF800000320ABBE51
:1020F00008BD20F07F4C80EA030023F07F47ACEB63
:10210000070303F57C5300F0004003F1FF032DE9C2
:1021100080494FEA154B09B44FEA144325EA0B4EA8
:1021200024EA03480FF2042606EB132749083E78F9
:102130005FEA320203FB0667C7F5000707FB06F6F6
:102140004FEA54374FEAD64606F1020607FB066C03
:10215000CCF1005C4FEA1C472CEA074C07FB06F465
:102160000CFB06F504EB15464FEA961634BF00202B
:102170004FF000404FEAD13706FB07FC4FEA1C4CFA
:102180000CFB0BF7D21B03FB0CF761EB07010CFBFD
:102190000EF7B0EB074072EB17420CFB08F734BFA9
:1021A000A2EB0742B2EB074261EB17414FEA0C4446
:1021B0004FEA910706FB07FC4FEA1C4C0CFB0BF7A0
:1021C000B0EBC74072EB573203FB0CF734BFA2EB06
:1021D000C742B2EBC74261EB57310CFB0EF7B0EBD5
:1021E000C70072EB57720CFB08F734BFA2EBC702B3
:1021F000B2EBC70261EB5771039F4FEA816141EA7D
:10220000921104EBCC044FEAD1374FEA826206FB0D
:1022100007FC42EA90124FEA80604FEA1C4C0CFB2C
:102220000BF7D21B03FB0CF761EB07010CFB0EF75E
:10223000B0EB074072EB17420CFB08F734BFA2EB80
:102240000742B2EB074261EB17414FEA8C554FEA68
:10225000910704EB9C2406FB07FC4FEA1C4C0CFB8B
:102260000BF7B0EBC74072EB573203FB0CF734BFF0
:10227000A2EBC742B2EBC74261EB57310CFB0EF742
:10228000B0EBC70072EB57720CFB08F734BFA2EB40
:10229000C702B2EBC70261EB577115EB4C254FEA51
:1022A000816141EA92114FEA82624FEAD13742EAF4
:1022B000901206FB07FC44F100044FEA80604FEAED
:1022C0001C4C0CFB0BF7D21B03FB0CF761EB07015B
:1022D0000CFB0EF7B0EB074072EB17420CFB08F754
:1022E00034BFA2EB0742B2EB074261EB174115EB9B
:1022F0001C154FEA813141EA92414FEA823242EAAB
:1023000090424FEA80304FEA0C7644F1000448EAEC
:1023100003434EEA0B484FF0000EB2EB080C71EB92
:10232000030724BF624639464EEB0E0E4FF0000BFA
:102330000018524149414BEB0B0BB2EB080C71EB0F
:1023400003077BF1000B24BF624639464EEB0E0EAD
:102350004FF0000B0018524149414BEB0B0BB2EB15
:10236000080C71EB03077BF1000B24BF6246394672
:102370004EEB0E0E51EA020718BF46F0010616EBAF
:102380000E7655F1000254F1000103D5BDE8890134
:10239000BDE80088BDE88901BDE80048B619524192
:1023A00041EB0101A3F10103704780807F7E7D7CBA
:1023B0007B7A7978777676757473727171706F6ED7
:1023C0006E6D6C6C6B6A6A69686867666665646482
:1023D000636362616160605F5F5E5E5D5D5C5C5B0C
:1023E0005B5A5A595958585757565655555554547B
:1023F000535352525251515050504F4F4F4E4E4DD9
:102400004D4D4C4C4C4B4B4B4A4A4A494949484824
:102410004847474747464646454545444444444364
:1024200043434342424242414141000046EA06469C
:10243000A3F570534FEA164646EA42564FEAD222B7
:1024400042EA415210B54FEAD121A3F1010300F055
:102450002FF820F0004000F1020C00F0004701EBE3
:1024600000501146BCF5006F40EA070000D210BDD5
:10247000BAF1000F0AD01CB503B44FF004004FF0BE
:1024800004014FF000000FBCBDE810404FF0000108
:10249000BBF1010FB9BF04484FF0FF3103480021E1
:1024A00040EA070010BD00BFFFFFEF7F0000F07F94
:1024B000002B9C4630D477002BD01CB54FEA370751
:1024C00003B44FF010004FF01001BAF1000F06D026
:1024D000BCF1000FDCBF40F0080040F008014FF0F5
:1024E00000000FBCBDE810400BF1010BBBF1010F68
:1024F00008BF5FEA170722BF12F1010211F10101C3
:102500004FF0004143F1000300F0004043EA0000B7
:102510007047F9D35708D0E746EA064613F1400F53
:102520004FEA16461FDD13F1200FDFBF16430A46A0
:10253000002120335B42BED0C3F1200746EA0646A5
:1025400002FA07F74FEA164646EA0706C3F12007E4
:1025500022FA03F201FA07F721FA03F14FF0000320
:1025600042EA0702A7E746EA020646EA06464FEABB
:10257000164646EA0106BCBF46EA0646360C4FF050
:1025800000034FF000024FF0000194E72DE9804C6A
:102590009A46934670B491E8380007C831EA400C77
:1025A00048BF34EA430C03D5FFF7A3FDFFF780FFD4
:1025B000F0BCBDE8008C2DE9804C9A46934670B47F
:1025C00091E8380007C831EA400C48BF34EA430CB0
:1025D00003D5FFF78EFDFFF729FFF0BCBDE8008CA7
:1025E0002DE9804C9A46934670B491E8380007C8AC
:1025F00010F0804F08BF13F0804F03D100F01AF89D
:10260000FFF756FFF0BCBDE8008C2DE9804C9A46E0
:10261000934670B491E8380007C810F0804F08BFA7
:1026200013F0804F03D100F005F8FFF7FFFEF0BC78
:10263000BDE8008C20F07F4780EA030023F07F4C48
:1026400007EB0C03A3F57C5300F00040A3F1FE035D
:1026500092F0000F00F0B38095F0000F00F077804B
:102660002DE901494FEA11404FEA144621EA00489A
:1026700000FB06FC24EA064708FB06F607FB08F801
:1026800000FB07F718EB06484CEB164C4FEA124BD1
:1026900018EB07484FEA15464CEB174022EA0B4E61
:1026A0000BFB06FC25EA06470EFB06F607FB0EFEB3
:1026B0000BFB07F71EEB064E4CEB164C4FF00006DB
:1026C0001EEB074E4CEB174B18EB0B0840F10000CC
:1026D00018EB0E0B58EB000840F100008F1A4FF07A
:1026E00000013CBFC943661B14BFB5EB040C0021BD
:1026F0003CBFC943F61B4FEA17444EEA8E0E27EA49
:1027000004454FEA1C4704FB07622CEA074C05FB13
:1027100007F70CFB05F604FB0CFC16EB074642EB37
:10272000174216EB0C4642EB1C421BEB060658EB1D
:102730000202414146EA9E0601D5BDE80189B6196B
:10274000524141EB0101A3F10103BDE801894FEAC8
:1027500014454FEA114724EA054621EA074C05FBD8
:1027600007F406FB07F70CFB06F105FB0CFC11EB6D
:10277000074144EB17444FEA124711EB0C4144EB7D
:102780001C4422EA074C05FB07F206FB07F70CFB8B
:1027900006F605FB0CFC16EB074642EB174216EB60
:1027A0000C4642EB1C456A1854F1000148BF7047C3
:1027B000B619524141EB0101A3F10103704795F0B5
:1027C000000F37D04FEA11424FEA144721EA024680
:1027D00024EA074C02FB07F106FB07F70CFB06F4A3
:1027E00002FB0CFC14EB074441EB17414FEA154781
:1027F00014EB0C4441EB1C4125EA074C02FB07F5A6
:1028000006FB07F70CFB06F602FB0CFC16EB074673
:1028100045EB174516EB0C4645EB1C42121951F1DE
:10282000000148BF7047B619524141EB0101A3F1C5
:10283000010370474FEA14454FEA114724EA054661
:1028400021EA074C05FB07F106FB07F70CFB06F234
:102850004FF0000605FB0CFC12EB074241EB174161
:1028600012EB0C4251EB1C4148BF7047921841EBF0
:102870000101A3F1010370470A460146014801F036
:102880001FBC000008DC00202DE9F05F054617465C
:1028900089460846FEF787F900F0FF0A2846FEF74A
:1028A00082F9C2B2B9F1000F10D0DFF8808029465A
:1028B0001F48D8F80C40C8F8104001F001FC00F0A7
:1028C00051FB06460025DFF86CB027E02946184882
:1028D00001F0F6FB15E000BFD8F8100084421AD0D2
:1028E0001BF80400641CE11704EB51516FF30A015B
:1028F000641A19F80510814206D16D1CEDB25545D8
:1029000009D10120BDE8F09F99F80010814201D162
:10291000012500E000250A2036F034FE00F022FBFD
:10292000801BB842D8D30020ECE700005001002003
:1029300008DC002008D40020FEE70000134810B592
:102940000168C1F3C06100291ED04FF000618160B1
:102950000F49CA788258C97822F0010242500D48C6
:102960008168C1F3C0110029FAD10B4A402191615D
:10297000416821F00201416016F0D0FB002803D02D
:10298000BDE8104016F0BCBB10BD00000064024062
:10299000E8AF030800300140000002402DE9F0419B
:1029A0000F4C06460027D4E90301884214D00025C5
:1029B00040F2FF3800F088F87055D4E903018842EE
:1029C00004D1701947700120BDE8F0816D1C4545A8
:1029D000F0DB86F8FF73F6E737700020F4E70000BD
:1029E00050010020704700002DE9F04700273E46C7
:1029F0000CF0B8FA01222149214801F02AFB4FF4DA
:102A00007A7036F0BFFD1D4C40F6B838641E40F2B7
:102A10004C4542F2107A4FF0010929E0284636F081
:102A2000B1FD164800221146401CFFF72DFF284635
:102A300036F0A8FD1148424612A11730FFF724FFD7
:102A40000028EBD10D48424610A14C30FFF71CFF87
:102A5000012800D10127094852460CA12930FFF76F
:102A600013FF012800D1012617B10EB184F80090A0
:102A700020780028DED0BDE8F0870000510100205A
:102A800008DC002072656164790000004F4B000093
:102A900010B5FFF7A9FFBDE81040002036F098BD43
:102AA00004480168090404D54FF40041016001F0B5
:102AB000B3BB7047143C014002480178491C0170C7
:102AC0007047000000000020084AFF20D2E90313ED
:102AD000994209D00648405C491CCB1701EB53537F
:102AE0006FF30A03C91AD16070470000500100203B
:102AF00008D40020084AFF20D2E90113994209D0E6
:102B00000648405C491CCB1701EB536323F07F035D
:102B1000C91A5160704700003801002068D10020B8
:102B20002DE9F04F474CC1B020780028FCD04FF47D
:102B30008071684607F00EFFDFF80C91002541F226
:102B4000883A4FF4FA674FF47A7B00BF00F00AFA34
:102B5000A0603C4852463DA15B30FFF795FE00283F
:102B600053D038483A463BA18230FFF78DFE98B1EA
:102B700034483A4637A19130FFF786FE60B14FF4F2
:102B8000FA5235A16846FFF77FFE28B100F0EAF956
:102B9000064640F6B83833E0584636F0F3FC29488C
:102BA0000321801CFFF768FE642036F0EBFC25480B
:102BB0000D219E30FFF760FE27E000BFD4E903102F
:102BC00081421AD0411A01F50061CA1701EB525235
:102BD0006FF30A02891A64290FDD00F2FF70C11732
:102BE00000EB51516FF30A01401A494619F80020D1
:102BF0007D2A10D0085C0A280DD00A2036F0C2FCCD
:102C000000F0B0F9811B4145D8D36D1C022D9DDB2E
:102C100041B0BDE8F08F584636F0B4FC09480321B6
:102C2000801CFFF729FE642036F0ACFC05480D211E
:102C30009E30FFF721FE002302221946606937F01B
:102C400093FAE5E75001002008D40020434F4E4E90
:102C5000454354004F4B00004854545000000000BE
:102C600040F6B83036F08EFC0021012035F0F8FD3A
:102C70000128F9D0FFF754FF064C0120214635F01A
:102C8000EFFDFFF74DFF0021012035F0E9FD0128A0
:102C9000F9D0F2E7C02709002DE9F0410446876D1D
:102CA00000F060F9064694F835000025022806D0A9
:102CB0008020606584F834500120BDE8F0812068F0
:102CC000016821F0160101602068416921F080014E
:102CD0004161206C08B9A06C20B12068016821F026
:102CE000080101602068016821F0010101600CE029
:102CF00000F038F9801B052807D9202060650320E3
:102D000084F8350084F83450D7E720680068C0079D
:102D1000EED194F85C103F208840B860012084F820
:102D2000350084F834500020C7E790F835100229A8
:102D300003D08021416501207047052180F83510BE
:102D40000068016821F00101016000207047000067
:102D500070B5044600F006F90546601C02D0044830
:102D60000078044400F0FEF8401BA042FAD370BD86
:102D7000040000202DE9F84FDFF8BCA10022012556
:102D800003264FF00F090AF1040BAAF1040E00BF4D
:102D90000B6805FA02F42340A34270D10F7907F0C3
:102DA0000307012F01D0022F16D187684FEA42088E
:102DB00006FA08FC27EA0C07D1F80CC00CFA08FC4C
:102DC0004CEA070CC0F808C04768A7430C79C4F365
:102DD000001494403C4344600C79E443A4070AD0B7
:102DE000C4684FEA420C06FA0CF7BC438F6807FA36
:102DF0000CF72743C7600C7904F00304022C12D1AE
:102E0000D40800EB840CDCF820405707FF0E09FAC9
:102E100007F824EA0804D1F8108008FA07F848EA0D
:102E20000408CCF8208004684FEA420C06FA0CF73C
:102E3000BC430F7907F0030707FA0CF72743076035
:102E40004C6814F4403F70D03C4C276847F48047EE
:102E50002760246822F0030704F480440094384C6F
:102E600007EB040CDCF8084897074FEA177809FAD3
:102E700008F7BC43334FB84202D1002724E054E0A6
:102E8000314FB84201D101271EE0304FB84201D185
:102E9000022719E02E4FB84201D1032714E02D4F2D
:102EA000B84201D104270FE02B4FB84201D10527CA
:102EB0000AE02A4FB84201D1062705E0284FB84260
:102EC00001D1072700E0082707FA08F72743CCF8C5
:102ED0000878DAF800405746D1F804C09C435FEA0E
:102EE000CC2C00D51C433C60DBF800405F46D1F899
:102EF00004C09C435FEA8C2C00D51C433C60DEF888
:102F000000407746D1F804C09C435FEA8C3C00D572
:102F10001C433C60084F083F3C68D1F804C09C4308
:102F20005FEACC3C00D51C433C60521C102AFFF4E5
:102F30002FAFBDE8F88F0000083C01404438024044
:102F4000003001400000024000040240000802403E
:102F5000000C024000100240001402400018024021
:102F6000001C0240014880687047000004000020F7
:102F70000248816802781144816070470400002093
:102F80000B4810B5016841F400710160016841F41B
:102F900080610160016841F480710160032000F0EC
:102FA0009FF80F2000F006F800F050F8002010BD48
:102FB000003C024030B505461F4887B00024016838
:102FC00041F010010160006806A900F010000090B7
:102FD00001A800F0DBF90498A8B100F0F7F940006F
:102FE0001649174AB0FBF1F11648491E026040F23B
:102FF000E732C0E90324C0E90114846100F05CFDFC
:10300000040003D015E000F0E1F9E9E70D4800F015
:10301000BDFD04000DD1362000F034F8102D07D28C
:1030200000222946362000F03BF80748056000E002
:10303000012407B0204630BD4038024040420F0016
:10304000001000404CBE0020080000200C4882B058
:10305000016841F480410160006800F48040009004
:103060000748001F016841F080510160006800229C
:1030700000F0805000900F21901E02B000F010B8B8
:1030800044380240002809DB00F01F020121914072
:103090004009800000F1E020C0F8001170470000F6
:1030A000F0B40E4B1B680C46C3F30223C3F10705B3
:1030B000042D00D90425191D072901D2002300E0A1
:1030C000DB1E012606FA05F1491E214099409E406B
:1030D000761E16403143F0BC01F011BE0CED00E04D
:1030E000064900F0070208684FF6FF03184040EA5F
:1030F0000220034A10430860704700000CED00E016
:103100000000FA05034908B501200862024800687A
:10311000009008BD00000E42007000402DE9F84309
:10312000054600684FF00109C1074FF0000601D1C4
:10313000400727D5DFF80C81C8F86860FFF712FF59
:103140000746414C05E000BFFFF70CFFC01B0228FB
:1031500057D820680001F7D468688101287A41EACD
:103160000070394984310860C8F86890FFF7FAFEAA
:10317000074604E0FFF7F6FEC01B022841D820688E
:103180000001F7D52878800752D52F4840300168D4
:1031900041F08051016000682C4C00F0805000909C
:1031A000206840F480702060FFF7DCFE074604E0F2
:1031B000FFF7D8FEC01B022823D82068C005F7D52A
:1031C000214C7034206810F4407020D0A98901F49B
:1031D000407181421BD020681D4920F44070C1F825
:1031E00000900E6020602068C00710D0FFF7BAFE84
:1031F000064641F2883707E0FFF7B4FE801BB8426D
:1032000002D90320BDE8F88320688007F4D5E96877
:103210000D48C1F301220830032A0BD0016821F4C4
:10322000F81101602068A989C1F30B0108432060EF
:103230000020E7E70268074B22F4F81219400A431E
:103240000260EFE700004742003802400070004093
:10325000400E4742FFFCFF0F2DE9F0470E460500E8
:1032600065D0DFF81481D8F80000F7B200F007004D
:10327000B04207D288F80070D8F8000000F00700CC
:10328000B04254D128683D4C810712D5400703D580
:10329000206840F4E05020602878000703D52068BB
:1032A00040F4604020602068A96820F0F0000843E6
:1032B00020602878C0072DD0304968680839012877
:1032C00012D0022813D0032811D0096889070029D9
:1032D0002DDA216821F0030101432160FFF742FE4E
:1032E000814641F2883A0EE009688903EFE70968F0
:1032F0008901ECE7FFF736FEA0EB0901514502D941
:103300000320BDE8F0872068696800F00C00B0EB8E
:10331000810FEFD1D8F80010404601F00701B1420B
:1033200007D90770006800F00700B04201D0012003
:10333000E7E72878400705D52068E96820F4E050E1
:10334000084320602878000706D52068296920F402
:10335000604040EAC100206000F058F82168084A47
:10336000C1F30311515CC840064908600648006873
:10337000FFF720FE0020C4E7003C0240083802406E
:103380000EAF030810000020080000200F2202608A
:103390000C4A136803F003034360136803F0F0035F
:1033A0008360136803F4E053C36012684FF4E05382
:1033B00003EAD20202610448006800F007000860D6
:1033C0007047000008380240003C024004480549AC
:1033D00000680968044AC1F38221515CC840704703
:1033E00010000020083802401EAF030804480549B9
:1033F00000680968044AC1F34231515CC840704713
:1034000010000020083802401EAF0308154810B510
:10341000006810F00C02144813D04110042A0FD099
:10342000082A0ED10F4C241F2268236802F03F02A5
:103430005B0207D52068C0F38810A0FB010106E0FD
:10344000084610BD2168C1F38811A1FB00010023CB
:10345000FDF764F82168C1F30141491C4900B0FB44
:10346000F1F010BD083802400024F4002DE9F84FB7
:1034700004006ED02078DFF84C93C007A9F1040552
:103480004AD009F104000168C1F38101012908D083
:103490000068C0F3810002280AD1D9F80000400278
:1034A00006D52868800337D560680028E1D033E06E
:1034B0006068B0F5803F10D0B0F5A02F286810D01C
:1034C00020F480302860286820F48020286060681C
:1034D000A8B1FFF747FD06460DE0286840F48030AC
:1034E000F4E740F480202860F7E700BFFFF73AFDDB
:1034F000801B642873D828688003F7D50CE0FFF799
:1035000031FD064605E000BFFFF72CFD801B642857
:10351000F0D828688003F7D42078DFF8AC828007E1
:103520004FF0000A3ED5A748001D016811F00C0FAE
:1035300008D00068C0F3810002280BD1D9F8000040
:10354000400207D42868800716D5E068012800D11A
:1035500012E033E1E068B8B10120C8F80000FFF7DD
:1035600001FD064605E000BFFFF7FCFC801B0228BA
:10357000C0D828688007F7D52868216920F0F800AE
:1035800040EAC10028600DE0C8F800A0FFF7EAFC9F
:10359000064604E0FFF7E6FC801B02281FD82868D7
:1035A0008007F7D42078000722D5864F87486169C5
:1035B000703771B101210160FFF7D4FC064604E0C9
:1035C000FFF7D0FC801B022809D838688007F7D5A0
:1035D0000EE0C0F800A0FFF7C5FC064605E082E05B
:1035E000FFF7C0FC801B02287DD838688007F7D41D
:1035F0002078400768D5DFF8CCB100270BF13C0BF1
:10360000DBF80000C0000BD4DBF8001041F0805163
:10361000CBF80010DBF80000012700F0805000908C
:103620006B4E3068C00510D4306840F48070306054
:10363000FFF798FC009005E0FFF794FC0099401A12
:10364000022850D83068C005F6D55E4EA0686C36AA
:1036500001280FD00528306810D020F0010030601C
:10366000306820F004003060A068B8B1FFF77AFC41
:1036700000900FE0306840F00100F4E740F00400F3
:103680003060F7E7FFF76EFC0099411A41F288308D
:10369000814266D830688007F4D50EE0FFF762FCFF
:1036A000009007E0FFF75EFC0099411A41F2883074
:1036B000814256D830688007F4D42FB1DBF800106F
:1036C00021F08051CBF80010A069C8B33D49091D15
:1036D0000968C1F3810102294AD00228504607D067
:1036E000C8F8600000E03CE0FFF73CFC04463BE02B
:1036F0004746C8F86000FFF735FC064605E000BF06
:10370000FFF730FC801B02282BD828688001F7D4F3
:10371000D4E907010843A16A2E4A490802EB014196
:10372000626A41EA8211084394F82C1040EA016170
:10373000C9F8001001203866FFF714FC044606E0C3
:103740003EE000BFFFF70EFC001B022809D82868E6
:103750008001F7D534E000BFFFF704FC001B02280E
:1037600002D90320BDE8F88F28688001F4D427E04F
:103770000128F7D0D9F80000E26900F480019142F5
:103780001CD1226A00F03F01914217D147F6C07167
:10379000626A0140B1EB821F10D1A26A4FF0FF3381
:1037A00000F4403103EB5202B1EB024F06D194F822
:1037B0002C1000F07060B0EB016F01D00120D1E758
:1037C0000020CFE70438024000004742800E474205
:1037D000007000400000FFFF0068503050F82100EA
:1037E00070470068503040F82120704710B50068DD
:1037F0000B4641680D480140080CD870C1F3042401
:103800005C7001F03F049C70C1F34231197052B9F1
:1038100000F002FFD870587800F0FEFE58709878DB
:1038200000F0FAFE9870002010BD00003FFFFF007E
:1038300010B50B460168896A596001680969C1F3CE
:103840000E019960006801680D480140C1F3054010
:103850001870C1F306245C7001F07F049C70890D20
:10386000D97052B900F0D8FE1870587800F0D4FE24
:103870005870987800F0D0FE9870002010BD0000BD
:103880007F7F7F0010B5040002D0607F10B106E09A
:10389000012010BD00202077204600F041F80220D2
:1038A00060772068C168C943C90632D5CA21416220
:1038B000216853204862204600F0C2FE20BB2068E9
:1038C0008168164A114081602168886862681043E7
:1038D000D4E904231A43104388602168E068086132
:1038E00020680169228941EA02410161204600F015
:1038F000CBFE48B921680A6C22F480220A64216850
:103900000A6CA3691A430A642268FF21516208B154
:1039100010BD00200121617710BD0000BFFF8FFFA7
:103920007047000070B50446007F0B46012819D08F
:103930000126267702206077B2B19878D97840EADC
:10394000014558781978000240EA41300543216862
:10395000CA204862216853204862204600F070FE69
:10396000D0B122E0022070BD5878C10603D500F026
:10397000EF000A305870D87800F057FE02045878EB
:1039800000F053FE42EA0022987800F04EFE024317
:10399000187842EA4035DAE7074805402068456074
:1039A000204600F071FE00B966772268FF2151625F
:1039B0000021217770BD00003FFFFF002DE9F0419D
:1039C0000446007F0D46012823D04FF0010884F8FB
:1039D0001C80022060772068002780684FEA4060E2
:1039E000D2B1002800DBEF70A878297840EA0146C0
:1039F0006878E978000240EA815006432168CA20CD
:103A00004862216853204862204600F019FEB8B190
:103A10002CE00220BDE8F081002800DBEF70287860
:103A200000F003FE0204687800F0FFFD42EA002285
:103A3000A87800F0FAFD0243E87842EA8056DDE714
:103A40000D480640206806602068816821F48021C6
:103A50008160D5E90301084321688A6810438860C2
:103A6000204600F011FE08B984F81D802268FF216D
:103A700051622777CEE700007F7F7F0070B5044654
:103A80000B482168C860FFF76DFA05464FF47A7657
:103A900007E000BFFFF766FA401BB04201D90320E0
:103AA00070BD2068C0688006F4D5002070BD00009D
:103AB0005F7F01007047704710B5040003D094F891
:103AC0003D0010B107E0012010BD002084F83C004B
:103AD000204600F01EF8022084F83D00211D2068D9
:103AE00000F06CFF012084F8460084F83E0084F862
:103AF0003F0084F8400084F8410084F8420084F8D4
:103B0000430084F8440084F8450084F83D00002018
:103B100010BD704790F83D10012901D00120704779
:103B2000022180F83D1000681149884214D0B0F19C
:103B3000804F11D00F4988420ED00F4988420BD0D8
:103B40000E49884208D00E49884205D00D49884266
:103B500002D00D49884204D1816801F0070106298D
:103B600003D0016841F001010160002070470000AE
:103B7000000001400004004000080040000C00402C
:103B800000040140004001400018004090F83D1042
:103B9000012901D001207047022180F83D10016801
:103BA000CA6842F00102CA6000681149884214D014
:103BB000B0F1804F11D00F4988420ED00E49884293
:103BC0000BD00E49884208D00D49884205D00D49D6
:103BD000884202D00C49884204D1816801F0070173
:103BE000062903D0016841F00101016000207047FF
:103BF000000001400004004000080040000C0040AC
:103C000000040140004001400018004070472DE9C9
:103C1000F04104460068C66805694FF00007A9072F
:103C200013D5B10711D5F91E016101202077206855
:103C300080698007204602D0FFF7E8FF04E000F02B
:103C40007EF8204600F07CF82777680716D57007C5
:103C500014D521686FF004000861022020772068E5
:103C6000806910F4407F204602D0FFF7CFFF04E0C8
:103C700000F065F8204600F063F82777280715D58F
:103C8000300713D521686FF0080008610420207701
:103C90002068C0698007204602D0FFF7B7FF04E024
:103CA00000F04DF8204600F04BF82777E80616D5CF
:103CB000F00614D521686FF0100008610820207705
:103CC0002068C06910F4407F204602D0FFF79EFFB5
:103CD00004E000F034F8204600F032F82777E807D7
:103CE00008D0F00706D021686FF001000861204677
:103CF00000F028F8280608D5300606D521686FF0B0
:103D0000800008612046FFF7D5FE680608D57006DA
:103D100006D521686FF040000861204600F022F8C7
:103D2000A8060AD5B00608D521686FF02000086102
:103D30002046BDE8F041FFF7BEBEBDE8F081704708
:103D40007047000010B500680549884206D1FFF7AA
:103D50000FF9BDE81040012027F05EBF10BD000044
:103D6000001000407047704770470000F8B50168C8
:103D700004460868CA684B6910F00F0F4FF0000541
:103D800059D003F0010602F49077374365D0C1079C
:103D900005D0D10503D5616C41F001016164410793
:103DA00005D5D90703D0616C41F002016164810738
:103DB00005D5D90703D0616C41F0040161640107A6
:103DC00007D502F02001314303D0616C41F00801B6
:103DD0006164616C00293AD0800604D5900602D552
:103DE000204600F081FE20684069616CC0F38010BD
:103DF000090700D460B3204600F04FFE20684069F8
:103E0000400621D52068143050E8001F21F0400101
:103E100040E80012002AF5D1E06BA8B172490165B3
:103E2000E06BFEF782FF002811D0E06B016D01B05E
:103E3000BDE8F040084783060FD593060DD5204610
:103E4000BDE8F84000F050BE2046FFF78DFFF8BDFA
:103E50002046FFF789FF6564F8BD266B2023012EFD
:103E60007ED1C6067CD5D6067AD50868486800900B
:103E700048694FF0020640064DD5E26B1068406875
:103E80004FF480770004000C3AD0A18D814237D9DD
:103E9000E085D069B8422DD020680C3050E8001F72
:103EA00021F4807140E80012002AF5D12068143016
:103EB00050E8001F21F0010140E80012002AF5D16E
:103EC0002068143050E8001F21F0400140E8001243
:103ED000002AF5D184F84230256320680C3050E880
:103EE000001F21F0100140E80012002AF5D1E06B1C
:103EF000FEF7D2FE6663A08DE18D401A81B206E026
:103F0000A18D8142A8D1D069B842A5D1666320466F
:103F1000FFF729FFF8BDA08DE18D401A81B2E08D39
:103F20000028F7D00029F5D020680C3050E8002F89
:103F300022F4907240E80027002FF5D12068143059
:103F400050E8002F22F0010240E80027002FF5D1B1
:103F500084F84230256320680C3050E8002F00E0E0
:103F600006E022F0100240E80023002BF3D1CDE759
:103F700005062BD5150629D594F841002128C9D16D
:103F8000A068B0F5805F01D12069B0B1206A411C02
:103F90002162216800784860E08C401E0004000C1B
:103FA000E084B7D12068C16821F08001C160206839
:103FB000C16841F04001C160F8BD206A0088C0F3CB
:103FC00008004860206A801C2062E5E74006F3D5BF
:103FD0005006F1D5CA68204622F04002CA6084F833
:103FE000413000F086F8F8BD8D4A000870B5040035
:103FF00004D094F84100002510B106E0012070BD06
:1040000084F84050204600F023F8242084F8410032
:104010002068C16821F40051C160204600F0C6FD4F
:104020002068016921F4904101612068416921F013
:104030002A0141612068C16841F40051C160656492
:10404000202084F8410084F842006563002070BDA0
:10405000704790F84230202B01D00220704721B1E8
:104060001AB10023036300F027BE0120704700004F
:1040700030B400680E49884217D10E4908694B7860
:104080000246401CC41700EB54546FF30A04001B93
:10409000CC68A04202D0084CA35408610549012213
:1040A00030BC491C0548FFF7D4BF30BC7047000046
:1040B000001401405001002008D4002008DC00203A
:1040C00090F84130202B01D00220704779B172B1B5
:1040D00001628284C28400214164212180F8411060
:1040E0000068C16841F08001C16000207047012074
:1040F00070477047FEE700002DE9F84FDFF8FC90AD
:1041000000224846DFF8F8C0D0E90261D9E9004052
:104110000B46341B61EB0001501EB4EB0C0C154632
:10412000174671F1000C5ED3DFF8D8804FF0000C19
:10413000B8EB04047CEB010C55D34C46D4E904C124
:10414000BCEB060661EB03012F4BF31A71F1000380
:1041500049D3DFF8B8C00023BCEB06068B4142D33D
:1041600000234FF00309EA4609EB430808F1010C6C
:1041700004EBCC0104EBC80CD1E90061DCE9008C54
:10418000B6EB080661EB0C015206DFF88480120ED4
:104190006D1C4FF0000CB8EB06067CEB010C01D255
:1041A00042F00102082D04D10AF80720002215462A
:1041B0007F1C5B1C202BD7DB9DF80110C943CBB2C1
:1041C0008DF801309DF80310C943CAB28DF8032061
:1041D0009DF80010994203D19DF80230934204D01B
:1041E0000C4A00211160BDE8F88F084600F0FEF986
:1041F0009DF8020000F0FAF90020F4E7E8D1002071
:1042000000127A0080969800E0673500C03B4703B3
:1042100040420F00380100202DE9F04131F056FEF8
:10422000254C264FD4E90423861A61EB03020023B0
:104230001D46BE1B934100D22560C4E90401204AFB
:10424000236802EBC3065B1CC6E900012360042B54
:1042500006D0442B02D1FFF74FFF2560BDE8F08167
:10426000D2E90260D2E900370146F31A60EB070099
:10427000144FDF1B70F10007F0D3DFF84CC00027AC
:10428000BCEB03038741E9D3D2E90402801B62EB54
:1042900001020E49411A72F10001DFD34FEAAC036B
:1042A0000021181A9141D9D3002000F09FF9002075
:1042B00000F09CF9D1E700003801002000E1F5058D
:1042C000E8D1002000127A008096980080841E00B9
:1042D00000B587B000F048F814216846FCF74CFDA3
:1042E0001448016841F008010160006800F008000E
:1042F000059010481430016841F480410160006865
:10430000694600F4804005904FF4004000904FF45F
:1043100044100190012002900748FEF72BFD002277
:1043200002212820FEF7BCFE2820FEF7ABFE07B0D6
:1043300000BD000030380240000C024070B5054658
:1043400008480C46D0E90110814202D14FF0FF30FD
:1043500070BDFEF7CFFB2870FEF7CCFB207000206D
:1043600070BD0000380100200D4808B5026800212A
:1043700042F00102026000684FF0804200F001004C
:1043800000900848C0E900214A1EC0E902120161FC
:104390008161FFF791FBBDE808400248FFF7BABB17
:1043A0004038024050DC0020044908B50A68024346
:1043B0000A6009680140009108BD000030380240E1
:1043C0002DE9F041D2E902431C43D2E904352B43E5
:1043D0001C4393691C43D3691C43936A1C431D4BC4
:1043E0005D5C46591C4F3E4026434651D56AD5B1C7
:1043F0005E5C00F11404176B56F804C03D432CF0CA
:10440000070C4CEA050C46F804C05C5C556B065979
:1044100026F0C0762E4306515D5C946B465926F417
:10442000C006264346515E5C00F10C055468745189
:104430005E5C2D1F146874515B5C051D146A5E5927
:104440006FF30F0626435E51526A00F007F8002012
:10445000BDE8F08106AF03081F80FCFF034B595CE9
:10446000435823F0606313434350704706AF03087B
:1044700030B5036A91FAA1F4B4FA84F4A5000F24CC
:10448000AC4091FAA1F1B1FA81F18900A3438A40CD
:104490001343036230BD30B5036891FAA1F4B4FA56
:1044A00084F465000324AC4091FAA1F1B1FA81F1E2
:1044B0004900A3438A401343036030BD30B583688D
:1044C00091FAA1F4B4FA84F465000324AC4091FAA3
:1044D000A1F1B1FA81F14900A3438A4013438360FB
:1044E00030BD10B503680122C3F380132BBBD1E9A3
:1044F00000231A43D1E9023423431A430B691A43B8
:104500004B691A438B691A43CB691A430B6A1A43E6
:1045100003684FF6BF74A3431A43026042684B69B5
:1045200022F0040242EA134242600A6AB2F5005FD6
:1045300002D1898C89B201610022C16921F4006134
:10454000C161104610BD000086B04FF4FA75194CD9
:1045500027F052FB6168411AA94209D3164B042186
:104560005A69914302F0040241EA02419961606094
:1045700000226946A06C35F0C9FC012813D106F071
:104580001DFA0146A06A1EF035FC02A9206B1EF040
:1045900031FC0199E06A1EF02DFC009834F04EFFCA
:1045A000019834F04BFF27F0FDFB052034F0EAFFC3
:1045B000CEE700007000002000040240094808B562
:1045C000016841F080010160016801F08001009103
:1045D000016841F001010160006800F001000090F5
:1045E00008BD000030380240FEE7FEE7084B10B57A
:1045F00099680A46491CCC1701EB546424F07F04E7
:10460000091B5C68A14202D0024CA054996010BD05
:104610003801002068D10020010901EB810100F080
:104620000F0000EB4100C0B27047002102E00A38E1
:10463000C0B2491C0A28FAD2090740EA1160704743
:104640002DE9F041044600680025C168490618D4E8
:10465000C16841F08001C160FEF784FC06464FF45A
:104660007A78042707E000BFFEF77CFC801B4045FA
:1046700001D9677701252068C068400601D4002D64
:10468000F2D02846BDE8F08170B5044600680025E8
:10469000C16821F08001C16020688068800606D46E
:1046A0002046FFF7EBF910B104206077012528467A
:1046B00070BD000010B504000BD051B100220648B7
:1046C000FFF7B6F8002221460348FFF78FF80020D5
:1046D00010BD4FF0FF3010BD98DC002070B598B0D1
:1046E00030216846FCF748FB00241194129413947F
:1046F00014210CA81494FCF73FFB3748159401686B
:1047000041F080510160006800F080501690FEF783
:10471000F9FC04200125009002956846FEF7A6FEEC
:104720000226002853D00820059500906846FEF721
:104730009DFE08B1FEF7C0F94FF400701196149079
:1047400011A8FEF7EBFC08B1FEF7B6F923480560A7
:1047500024482349C0E900147F218160FF21C0E97A
:104760000314FFF78FF808B1FEF7A6F901211D48E1
:10477000FFF732F843F2F226B04226D00C208DF833
:1047800030008DF831408DF832400F9400220CA992
:1047900014481094FFF712F908B1FEF78DF98DF85F
:1047A00054508DF855508DF856501A208DF85700FA
:1047B000002215A90B48FFF7B5F808B1FEF77CF900
:1047C000324601210748FFF70CF818B070BD4FF4CE
:1047D00080701196B3E70000403802403C0E47421B
:1047E0000028004098DC00202DE9F04786B0804684
:1047F0000EA80E4690E880061C4615461421684611
:10480000FCF7BAFA002005908DF800708DF8019041
:104810000390024604908DF802A069460C48FFF709
:10482000CDF84FF0FF3770B98DF817808DF815600F
:104830008DF816508DF81440002205A90448FFF7A2
:1048400071F8002800D0384606B0BDE8F0870000B7
:1048500098DC002030B589B00C460546142103A829
:10486000FCF78AFA0020089003AB08AA21462846E4
:1048700028F032FB18B14FF0FF3009B030BD9DF881
:104880000C009DF80E209DF80D108DE807009DF896
:1048900020309DF822209DF821109DF82300FFF77D
:1048A000A3FFEAE70949020A0A738A68C2F34002D1
:1048B000002AFAD008738868C0F340000028FAD0B4
:1048C0008868C0F3C0100028FAD17047003001405A
:1048D000064908738868C0F340000028FAD0886849
:1048E000C0F3C0100028FAD170470000003001402A
:1048F00010B54FF0E020006935F0A6FC012803D088
:10490000BDE8104035F044B910BD000030B593B09B
:1049100030216846FCF730FA14210CA8FCF72CFA79
:104920001D480025016841F080510160006800F0D9
:10493000805011901948016841F48041016000687D
:10494000022400F4804011900120009000040190A6
:104950008001CDE9064008AA0420A82182E81300BE
:104960000B906846FEF782FD08B1FEF7A5F80CA98A
:104970000F2081E831004FF4A0500F904FF4805089
:10498000109005210CA8FEF767FC002801D0FEF767
:1049900093F813B030BD0000403802400070004072
:1049A0000248016841F470010160704788ED00E041
:1049B0000148FFF72CB900004CBE0020F0B502689A
:1049C000274B284D284E294F294C4FF0804C9842B8
:1049D00009D0604507D0A84205D0B04203D0B84204
:1049E00001D0A04204D122F0700E4A6842EA0E02C1
:1049F00098421BD0604519D0A84217D0B04215D0BC
:104A0000B84213D0A04211D01A4DA8420ED01A4D70
:104A1000A8420BD0194DA84208D0194DA84205D084
:104A2000184DA84202D0184DA84203D122F4407577
:104A3000CA682A434D6922F080022A438D68C56204
:104A40000D688562984201D0A04201D109690163D5
:104A5000016841F004010160012141610260F0BD83
:104A6000000001400004004000080040000C00402D
:104A70000004014000400140004401400048014062
:104A800000180040001C00400020004010B5806B62
:104A90000021C185FFF768F910BD01680C3151E8AC
:104AA000002F22F4907241E80023002BF5D1016819
:104AB000143151E8002F22F0010241E80023002BBD
:104AC000F5D1016B012909D101680C3151E8002FA2
:104AD00022F0100241E80023002BF5D1202180F8BC
:104AE000421000210163704708B590F84210222956
:104AF00001D0022008BD82684FF480539A4201D150
:104B0000016921B1816A9A421BD04AB10AE0026868
:104B1000816A5268C2F308020A80816A891C08E02F
:104B2000026972B10268526802F07F020A70816AFB
:104B3000491C8162C18D491E0904090CC18503D03D
:104B40001BE002685268F1E70168CA6822F020029F
:104B5000CA600168CA6822F48072CA6001684A6942
:104B600022F001024A61202180F8421000214163B5
:104B7000026B012A03D0FFF77BFA002008BD016316
:104B800001680C3151E8002F22F0100241E80023A7
:104B9000002BF5D101680A68D20602D50A68496877
:104BA0000091818DFFF7DFF8E7E7000070B504465C
:104BB00000680169E26821F44051114301612169F3
:104BC000A068E26908436169114308432168CA6823
:104BD00049F20C639A430243CA6020684169A269A2
:104BE00021F440711143416131492068884202D06B
:104BF0003049884202D1FEF7F9FB01E0FEF7E6FBFF
:104C0000E2690023192164253226B2F5004F62685B
:104C100028D0A0FB0101930F9200FBF77FFC014617
:104C2000B0FBF5F06FF01802504301EB800006EB8B
:104C30000010B0FBF5F000F0F002B1FBF5F002EB74
:104C40000012B1FBF5F06FF01803584301EB800040
:104C500006EB0010B0FBF5F000F00F0021681044E7
:104C6000886070BDA0FB010192185B41FBF756FC08
:104C70000146B0FBF5F00201B1FBF5F06FF018034F
:104C8000584301EB800006EBC000B0FBF5F000F0EC
:104C9000F80002EB4002B1FBF5F0584301EB800055
:104CA00006EBC000B0FBF5F000F00700D6E700000F
:104CB000001001400014014081628285C2850021FC
:104CC0004164222180F84210016921B10168CA685B
:104CD00042F48072CA6001684A6942F001024A6186
:104CE0000068C16841F02001C160002070470000E9
:104CF0000148FFF73BB8000008DC0020FEE7090789
:104D0000090E002804DB00F1E02080F80014704751
:104D100000F00F0000F1E02080F8141D7047000043
:104D200030B52DED048B81B0B0EE408AF0EE608A94
:104D30006A4651EC180B0AF0B7FE00989FED329BC3
:104D40007E300090002821DC53EC192B51EC180B1D
:104D500035F088FD1AD0002140F608004FF0000021
:104D6000044651EC180B35F08FFC08EE100A40F6A3
:104D7000080004EA00014FF00000B5EEC08AF1EE31
:104D800010FA04BF0220FCF715FF2DE00098FF2861
:104D900030DB002108464FF0000000F4400553ECE2
:104DA000192B51EC180B35F003FF8CBF00240124A4
:104DB0000220FCF7FFFE9FED168A4DB1002C0CBFC0
:104DC0004FF400004FF48000A84218BF9FED118AF5
:104DD000042108464FF00000002C01BFB1EE480A44
:104DE00001B0BDEC048B30BDB0EE480A01B0BDECA3
:104DF000048B30BD51EC180B35F046FC01B000EED1
:104E0000100ABDEC048B30BD000000000000000063
:104E10000000807FFFFF7F7F30B540F2FF742DEDF3
:104E2000048BF0EE608A18EE901A85B0B0EE408ADE
:104E30009FED2B9B05468DED008B34EA115147D039
:104E400053EC192B51EC180B35F00CFD40D02A46D1
:104E500051EC180B36F00BF841EC180B18EE900AD9
:104E60008DED008B34EA10501CD053EC192B51EC13
:104E7000180B35F0F7FC2BD10220FCF79BFE00F05D
:104E800057F810EE901A18EE900A8DED020B8DED8A
:104E9000008B61F31E0003909DED020B05B0BDEC8D
:104EA000048B30BD0220FCF785FE00F031F810EED7
:104EB000901A18EE900A8DED020B8DED008B61F3C8
:104EC0001E0003909DED020B05B0BDEC048B30BDC0
:104ED00005B0B0EE480AF0EE680ABDEC048B30BDB8
:104EE000000000000000000000B583B09FED060B3D
:104EF0000A4601468DED000B6846FCF777FB9DEDF9
:104F0000000B03B000BD0000000000000000000026
:104F10009FED050B10B553EC102B51EC100B35F039
:104F200049FD41EC100B10BD0000000000000070B6
:104F30009FED050B10B553EC102B51EC100B35F019
:104F400039FD41EC100B10BD000000000000001006
:104F500010B5044691ED000BFFF7E2FE84ED000A68
:104F600010BD10B5044690ED000B0846FFF754FF46
:104F700084ED000B10BD70B5044600256FF02F06C0
:104F800008E02068411C2160007805EB850106EBF4
:104F9000410145182068007800F02CF80028F0D175
:104FA000284670BD70B514460D461BB9114615F064
:104FB000A1F8034603FB05F0142C0ED0E11F0329D2
:104FC0000AD8072C0DD0082C0DD0092C0DD00A2C96
:104FD0000DD0002100EB810070BD590801FB0500D8
:104FE00070BD0221F6E70421F4E71021F2E74FF447
:104FF0008071EFE73038092801D801207047002080
:10500000704730380A2801D20120704700207047CD
:105010002DE9FC5F9B460CAB8A468146DDE91160B9
:1050200093E81210DDE90F575FEA80784FF0300304
:105030001AD45EB15FEAC07808D000F00C0858EAD4
:105040000C0803D0761E01E00B55641CBC4204D250
:10505000202CF9D301E00B55641C5FEAC07803D023
:10506000B44201D2202CF6D35FEAC06825D55FEAAE
:1050700040580AD44CB1BC4201D0B44205D1641EA0
:1050800003D0102D03D1641E04E0102D02D0022D98
:105090000AD00EE0850603D4202C1ED2782506E027
:1050A000202C1AD2582502E0202C16D262250D554C
:1050B000641C202C11D20B55641C202C0DD2BCF189
:1050C000000F01D02D2306E0430701D52B2302E07A
:1050D000030702D520230B55641CCDE900BAC8464E
:1050E000154681468B46AA46800714D1274607E01D
:1050F0002A46DDE900316D1C2020C446E0477F1CB4
:10510000B742F5D307E02A466D1C641EDDE9003185
:105110001BF80400C047002CF5D15FEA897006D463
:1051200009E02A46DDE900316D1C2020C047A5EBCF
:105130000A00B042F5D32846BDE8FC9F2DE9F04FA8
:105140008FB099468B46DDE91818DDE91C63DDE96F
:105150001A4792468646002209B923F010035805E3
:1051600007AD00D5C9B1B1FBF4F004FB1010C0B21B
:105170000A2801D2303009E05FEA836C02D54FF093
:10518000410C01E04FF0610C60440A38B1FBF4F1CE
:10519000A854521C09B1202AE5D3CDF80880CDE9E6
:1051A0000563CDE90052CDE903474B4652465946C7
:1051B0007046FFF72DFF0FB0BDE8F08F2DE9FF4FD0
:1051C0008FB01CACDDE9239594E8030820AC94E88B
:1051D000C004002450EA010201D125F010056A053F
:1051E0000DF11C0802D550EA010217D032463B46A9
:1051F000FBF794F9D2B20A2A01D2303206E0AB06AC
:1052000001D5412300E061231A440A3A08F804203A
:10521000641C50EA010201D0202CE7D3CDE90084C0
:10522000CDF808B0CDE90595CDE9036A0FAF97E851
:105230000F00FFF7EDFE13B0BDE8F08F9A4200D2E9
:1052400088547047704770B50D46040011D08DB179
:1052500001F07BF800280BD06168006912F071FB47
:105260000646E16B28468847E1680844E06030461E
:1052700070BDFEE7FEE72DE9FF4114460E460546E8
:105280000A461F4621466846DDF8288011F018F9C5
:1052900000281AD0019861682268411A009808FB1A
:1052A0000151821A551831683844441A684611F081
:1052B000F5F8002107E0625C6B5C1A44FF2A00D914
:1052C000FF226254491C8142F5D3BDE8FF8110B52D
:1052D00002004FF000000CD04B1E194200D0FEE738
:1052E0000A44521E9A43B2F5004F02D20C2A01D949
:1052F000104610BD0C2010BD2DE9F04F064691B0B0
:10530000D6E90170804696F821B03568F0680F90B4
:10531000D6E906400E90D6E904A009900AA813F039
:10532000BFFC96F8220008B10020C9E0BAF1000FD6
:1053300005D0BBF1FD0F4FF0000066D28DE0BBF150
:10534000FD0F4FF0000017D21CE000260CE000BF5C
:1053500004EB460005EB46010088ADF804000AAAFC
:10536000019813F0EBF8761CBE42F1DB0F98054470
:105370000E98044409F1010081464045E5DB11B077
:10538000BDE8F08F81464045F9DA002613E000BF02
:1053900004EB46000088ADF804009DF8051011FBF1
:1053A0000BF0000A8DF8050005EB46010AAA0198EA
:1053B00013F0C4F8761CBE42EADB0F9805440E9841
:1053C000044409F10100DDE7002614E004EB460087
:1053D0000088ADF808009DF809101AF8060011FBC6
:1053E00000F0000A8DF8090005EB46010AAA0298B0
:1053F00013F0A4F8761CBE42E8DB0F980999054427
:105400000E988A44044409F1010081464045DBDBE3
:10541000B5E7002617E000BF04EB46000088ADF8B2
:1054200008009DF809101AF8060011FB00F101FBB5
:105430000BF1080C8DF8090005EB46010AAA029849
:1054400013F07CF8761CBE42E6DB0F980999054400
:105450000E988A44044409F1010081464045D8DB96
:105460008DE700201EE000BF04EB4900BAF1000FF9
:105470000088ADF8080027D09DF809201AF8090027
:1054800012FB00F101FB0BF15FEA11408DF80900FE
:1054900096F8222005EB49000AAB029903F0ACFC18
:1054A00009F101008146B842DEDBBAF1000F01D0FC
:1054B00009998A440F9805440E9804440398401CA7
:1054C00003904045CDDB5AE79DF8091011FB0BF026
:1054D000000ADBE72DE9F04F064695B0D6E90170EA
:1054E000804696F821B03568F0680E90D6E90640FF
:1054F0000C90D6E904900A9096F8220020B110A8EA
:1055000013F0E2FB0020D0E0B9F1000F05D0BBF1B1
:10551000FD0F4FF0000064D289E0BBF1FD0F4FF0AA
:10552000000019D21EE000BF4FF000094E460BE00C
:1055300004EB460005EB8901427814F8160013F0DD
:1055400010FA09F10109761CBE42F1DB0E98054400
:105550000C9804440AF1010082464045E4DB15B092
:10556000BDE8F08F82464045F9DA4FF000094E461B
:105570000FE000BF04EB4600417811FB0BF0020A7C
:1055800005EB890114F8160013F0EBF909F1010994
:10559000761CBE42EEDB0E9805440C9804440AF1DA
:1055A0000100DFE74FF0000A564610E004EB46002A
:1055B000417819F8060011FB00F0020A05EB8A0198
:1055C00014F8160013F0CDF90AF1010A761CBE4258
:1055D000ECDB0E980A9905440C98894404440BF1BD
:1055E000010083464045DDDBB9E700BF4FF0000A0C
:1055F000564612E004EB4600417819F8060011FB0C
:1056000000F000FB0BF0020C05EB8A0114F8160009
:1056100013F0A7F90AF1010A761CBE42EADB0E98E4
:105620000A9905440C98894404440598401C059047
:105630004045DBDB93E70020039028E014F81A10C4
:105640000298B9F1000F61F3174061F30F2061F385
:10565000070004EB4A012CD0039A4B7819F802108A
:1056600013FB01F101FB0BF15FEA114161F31F60D4
:105670000290039896F8222005EB800010AB029967
:1056800003F0EAFB0398401C03900AF101008246F4
:10569000B842D3DBB9F1000F01D00A9881440E98CB
:1056A00005440C9804440598401C05904045C2DB15
:1056B00055E74A7812FB0BF1090AD7E72DE9F04FBD
:1056C000054687B0D5E9016790F821B000680090E1
:1056D000E8680290D5E906400390D5E9049004906B
:1056E000686AC11700EB517121F00701A0EB010AB4
:1056F00095F8220008B1002029E1B9F1000F05D08A
:10570000BBF1FD0F4FF0000070D2E2E0BBF1FD0FE6
:105710004FF000002ED233E04FF0000845461FE066
:1057200008EB0A018B4600980AF073FAC0EB0020E0
:105730008DF8040004EB450001A9427814F8150027
:1057400013F02CF99DF8040059467F28009802D9DF
:105750002EF0BAFC01E005F029FA08F101086D1CF1
:10576000B542DDDB02990098084400900398044498
:1057700009F101008146B842CEDB07B0BDE8F08FE9
:105780008146B842F9DA4FF00008454623E000BFF1
:1057900008EB0A01019100980AF03BFAC0EB0020E7
:1057A0008DF8100004EB4500417811FB0BF0020A64
:1057B00014F8150004A913F0F1F89DF810007F28E3
:1057C000DDE9000102D92EF07FFC01E005F0EEF9E1
:1057D00008F101086D1CB542DADB00990298084413
:1057E00000900398044409F10100C9E735E000BFC7
:1057F0004FF00008454624E008EB0A0101910098AB
:105800000AF007FAC0EB00208DF8140004EB450005
:10581000417819F8050011FB00F0020A14F8150090
:1058200005A913F0BBF89DF814007F28DDE90001FD
:1058300002D92EF049FC01E005F0B8F908F10108A1
:105840006D1CB542D8DB029900980844009003987B
:105850000499044489440BF101008346B842C7DB34
:105860008BE700BF4FF00008454626E008EB0A0131
:10587000019100980AF0CDF9C0EB00208DF81400DA
:1058800004EB4500417819F8050011FB00F101FB1C
:105890000BF10A0C14F8150005A913F07FF89DF818
:1058A00014007F28DDE9000102D92EF00DFC01E093
:1058B00005F07CF908F101086D1CB542D6DB0299B0
:1058C0000098084400900398049904440698894479
:1058D000401C0690B842C5DB4FE70020059026E04B
:1058E00014F818100198B9F1000F61F3174061F333
:1058F0000F2061F3070004EB48012CD04B7819F816
:10590000081013FB01F101FB0BF1090C61F31F609F
:105910000190059895F8223000EB0A01DDE90002BC
:1059200003F008FB0598401C059008F10100804633
:10593000B042D5DBB9F1000F01D004998944009938
:10594000029808440090039804440698401C06906E
:10595000B842C2DB11E74A7812FB0BF1090AD5E71E
:105960002DE9F04F064691B0D6E90170804696F8D1
:1059700021B03568F0680F90D6E906400D90D6E961
:1059800004900B9096F8220008B10020C7E0B9F10E
:10599000000F05D0BBF1FD0F4FF0000063D288E08F
:1059A000BBF1FD0F4FF0000018D21DE04FF00009D1
:1059B0004E460BE004EB460005EB0901427814F873
:1059C000160012F0F9FF09F10109761CBE42F1DB65
:1059D0000F9805440D9804440AF1010082464045A1
:1059E000E4DB11B0BDE8F08F82464045F9DA4FF0B4
:1059F00000094E460FE000BF04EB4600417811FB62
:105A00000BF0020A05EB090114F8160012F0D4FF9E
:105A100009F10109761CBE42EEDB0F9805440D9892
:105A200004440AF10100DFE74FF0000A564610E097
:105A300004EB4600417819F8060011FB00F0020A59
:105A400005EB0A0114F8160012F0B6FF0AF1010A7C
:105A5000761CBE42ECDB0F980B9905440D988944E7
:105A600004440BF1010083464045DDDBB9E700BF8C
:105A70004FF0000A564612E004EB4600417819F850
:105A8000060011FB00F101FB0BF10A0C05EB0A010A
:105A900014F8160012F090FF0AF1010A761CBE42BB
:105AA000EADB0F980B9905440D9889440444049847
:105AB000401C04904045DBDB93E70020039020E08E
:105AC00014F81A100098B9F1000F61F3174061F350
:105AD0000F2061F3070026D0039A19F8022012FB69
